:1000000002308A000A2A00000A108A100A118207A8
:100010000034403414345434CD244329CF294922A8
:100020004500D4224324CE27CC27C72C0001C2246C
:100030004527D622CE24C4275300253084008313BD
:100040000008031930280630F800F701F70B2628BE
:10005000F80B25287B30F700F70B2C28800B232882
:1000600008000830F8000430F700F70B3528861038
:10007000831686100330F700F70B3C288312AD0D72
:100080000610031C462883160614831203184B28F7
:10009000831606108312831686148312861C4E283C
:1000A000F80B33280430F700F70B5428861083161A
:1000B0008610000006140330F700F70B5D280330AC
:1000C000F700F70B612886148312861C6528F80157
:1000D0000330F700F70B6A28061878148610831689
:1000E00086108312061083160610831208002A0851
:1000F0002104AB00831606140430F700F70B7E28AA
:1001000086140330F700F70B83288312061083163A
:1001100006100430F700F70B8B2883128610831625
:10012000861003108312200DAC00AD0031202B0887
:10013000AD00312083160610000086148312861C41
:100140009F280430F700F70BA328A6280000831689
:1001500006140430F700F70BAB28AE28AF280000D8
:1001600083122A0804382104AB00831606140430D5
:10017000F700F70BB92886140330F700F70BBE28F9
:1001800083120610831606100430F700F70BC628FA
:10019000831286108316861003108312200DAC0084
:1001A000AD0031202B08AD00312083160610000071
:1001B00086148312861CDA280430F700F70BDE2839
:1001C000E1280000831606140430F700F70BE62838
:1001D000E928EA28000083122A08FB392104AB0031
:1001E000831606140430F700F70BF4288614033046
:1001F000F700F70BF9288312061083160610043057
:10020000F700F70B0129831286108316861003105E
:100210008312200DAC00AD0031202B08AD00312041
:1002200083160610000086148312861C15290430DC
:10023000F700F70B19291C29000083160614043057
:10024000F700F70B21292429252900008312080033
:100250000330A602031C36292630840083130008CD
:100260000319362934293429800B3329080027083B
:10027000F039A800270EF700F030F7057708F039BD
:10028000A9002808AA0077202908AA00772085302D
:10029000F700F70B492908000130A7003721043087
:1002A000A5001D2008002408A0003030AA007720F7
:1002B0000430A5001D200230A500F930A600282139
:1002C000A50B5D293030AA0077200430A5001D2041
:1002D0000230A500F930A6002821A50B6A2930308C
:1002E000AA007720F930F700F70B74297729283016
:1002F000AA0077205030A5001D202830A700372104
:100300005030A5001D200830A70037214C210630B1
:10031000A70037210C30A70037218A110A122E2A94
:100320002508033C031C9C2925080420F800240709
:100330008038A600A700372108002708F0390138C7
:10034000A800270EF700F030F7057708F0390138DC
:10035000A9002808AA0077202908AA00772085305C
:10036000F700F70BB12908000B08A4008B138316C4
:1003700003178C170C140000000083120313A41B36
:100380008B1703170C087F390319082A0313A400DD
:1003900003170D080313A50003170F080313A60086
:1003A0002408A7009D21250803178D0003132608A4
:1003B00003178F0003130B08A7008B138316031773
:1003C0008C170C140000000083120313A71B8B175B
:1003D00003170C0D0E0D7F390319082A0313A4000F
:1003E00003170D080313A50003170F080313A60036
:1003F0002408A7009D21250803178D000313260854
:1004000003178F008D0A03198F0A0313B4290317EA
:100410000313080003081F3983002730A0000830A9
:10042000A100A301A201831603170908C03989009E
:1004300003131F129F1200300317880083128701D5
:1004400088018901831304300313A400FA30A50046
:100450001D20A40B262A2730A40053290430A40011
:10046000FA30A5001D20A40B302A4C210330A40033
:10047000A50190210C3003178D0000308F0003136D
:10048000B4210330A4000130A500902111300317DE
:100490008D0000308F000313B4210830A400FA301F
:1004A000A5001D20A40B4F2A4C210330A400A50158
:1004B0009021173003178D0000308F000313B421F3
:1004C0000830A400FA30A5001D20A40B622A352AAA
:0204D0006300C7
:04400E00E22FFF3F5F
:00000001FF
;PIC16F887
;CRC=4031  CREATED="11-ago.-24 21:30"
