:1000000008308A00002800000A108A100A118207AE
:1000100000344034143454344424D4183100452975
:10002000D2275200CF2500014424D418311045397D
:10003000F2377200541D2000A0210001481D20004D
:10004000A0120000653084008313000803193528CE
:100050000630F800F701F70B2B28F80B2A287B3025
:10006000F700F70B3128800B282808000830F8002B
:100070000430F700F70B3A288610831686100330F9
:10008000F700F70B41288312D30D0610031C4B28F1
:100090008316061483120318502883160610831241
:1000A000831686148312861C5328F80B38280430D4
:1000B000F700F70B592886108316861000000614E7
:1000C0000330F700F70B62280330F700F70B6628C0
:1000D00086148312861C6A28F8010330F700F70B98
:1000E0006F2806187814861083168610831206105F
:1000F000831606108312080050082404D1008316CA
:1001000006140430F700F70B832886140330F70039
:10011000F70B882883120610831606100430F700A8
:10012000F70B902883128610831686100310831213
:10013000230DD200D30036205108D3003620831679
:100140000610000086148312861CA4280430F700D1
:10015000F70BA828AB280000831606140430F7001C
:10016000F70BB028B328B4280000831250080438D5
:100170002404D100831606140430F700F70BBE28C0
:1001800086140330F700F70BC3288312061083167A
:1001900006100430F700F70BCB2883128610831665
:1001A000861003108312230DD200D300362051088D
:1001B000D300362083160610000086148312861C96
:1001C000DF280430F700F70BE328E6280000831649
:1001D00006140430F700F70BEB28EE28EF28000098
:1001E00083125008FB392404D1008316061404300E
:1001F000F700F70BF92886140330F700F70BFE28F9
:1002000083120610831606100430F700F70B062938
:10021000831286108316861003108312230DD200DA
:10022000D30036205108D300362083160610000074
:1002300086148312861C1A290430F700F70B1E2936
:1002400021290000831606140430F700F70B262935
:1002500029292A290000831208000330B202031C56
:100260003B29323084008313000803193B293929C4
:100270003929800B382908003308F039B400330ECF
:10028000F700F030F7057708F039B5003408D000F2
:100290007C203508D0007C208530F700F70B4E29F4
:1002A00008000130B3003C210430E50022200800A2
:1002B0003008A3003030D0007C200430E50022203C
:1002C0000230B100F930B2002D21B10B622930307B
:1002D000D0007C200430E50022200230B100F9304B
:1002E000B2002D21B10B6F293030D0007C20F930C5
:1002F000F700F70B79297C292830D0007C2050307A
:10030000E50022202830B3003C215030E5002220B7
:100310000830B3003C2151210630B3003C210C30A1
:10032000B3003C218A150A122C283108033C031C17
:10033000A12931080420F80030078038B200B3004A
:100340003C2108004D08F0390138CE004D0EF70071
:10035000F030F7057708F0390138CF004E08D000AB
:100360007C204F08D0007C208530F700F70BB629A1
:1003700008000B08B0008B13831603178C170C149E
:100380000000000083120313B01B8B1703170C0827
:100390007F3903190D2A0313B00003170D08031347
:1003A000B10003170F080313B2003008CD00A221DB
:1003B000310803178D000313320803178F0003134E
:1003C0000B08B3008B13831603178C170C14000053
:1003D000000083120313B31B8B1703170C0D0E0DB4
:1003E0007F3903190D2A0313B00003170D080313F7
:1003F000B10003170F080313B2003008CD00A2218B
:10040000310803178D000313320803178F008D0A7C
:1004100003198F0A0313B9290317031308008E3039
:10042000F7006C08F8006B08F900FA01F808031DE2
:10043000232A7908F800F9010830F702F808031DAB
:10044000232AF7012B2A0310F81B2A2AF90DF80D8D
:10045000F703232AF8130800670803199C2AEF0002
:100460006B0803199C2AEF0703183D2A7F30EF021F
:10047000031C9C2A03199C2A412A8130EF07031888
:100480009C2A6F08F700F801F901FA016808F300E7
:10049000F3176908F2006A08F1001830EF00F00164
:1004A000711C6A2A6E08FA07031C5C2AF90A031DEC
:1004B0005C2AF80A0319F0176D08F907031C632A70
:1004C000F80A0319F0176C08E900E9176908F8073A
:1004D0000318F017F00DF80CF90CFA0CF30CF20CF1
:1004E000F10C0310EF0B4F2A0130F70703189C2A79
:1004F000F81B812AF30DFA0DF90DF80DF703031916
:100500009C2AF31F922AFA0A031D922AF90A031D54
:10051000922AF80A031D922AF80CF90CFA0CF70A31
:1005200003199C2A6808F0006C08F006F01F9A2A4C
:10053000F817A02AF813A02AF701F801F901FA0127
:1005400008008E30F7003908F7023A08F9003B0836
:10055000F800F917F7080319B82A0310F908031D62
:10056000B42AF8080319B82AF90CF80CF70BAD2ACD
:10057000BA1FBF2AF809F909F80A0319F90A08008D
:10058000A1018B1BA10A0B138B138B1BC42A83168F
:1005900006110611831206111430E500222083167D
:1005A00006118312061583160615D62AD72A0000CF
:1005B00001308312B400831606158312061DEE2A3D
:1005C0003408B40A003A031DED2AA1080319EA2AE7
:1005D000C0308B04FF30F8000F2CDB2A0130B40050
:1005E0008316061583120619032B3408B40A003A41
:1005F000031D022BA1080319FF2AC0308B04FF3012
:10060000F8000F2CF02AA1080319082BC0308B0426
:10061000EC013408EB000F227A08B8007908B70023
:100620007808B6007708B500BC01BB012030BA00DD
:100630008530B90035080319DF2BC10039080319CB
:10064000DF2BC102031C292B7F30C1070318DF2BCE
:100650002F2B8130C102031CDF2B0319DF2B410834
:10066000F700F801F901FA01C0013608BF00BF1711
:100670003708BE003808BD001930C1003C08BD0273
:100680000318522B0130BE020318522BBF0203186D
:10069000522BC0020318522BC00ABF0ABE0A3C08E4
:1006A000BD07842B3B08BE0203186D2B0130BF022F
:1006B00003186D2BC00203186D2BC00ABF0A3B083C
:1006C000BE073C08BD07031C842BBE0A031D842BF8
:1006D000BF0A031D842BC00A842B3A088038BF024E
:1006E0000318832B0130C0020318832BC00A3A0879
:1006F0008038BF073B08BE07031C612BBF0A031DE0
:10070000612BC00A612B7A14C10B872B922B03102B
:10071000BD0DBE0DBF0DC00D0310FA0DF90DF80D86
:10072000C20D3E2B421C9A2B0310F80CF90CFA0C4C
:10073000C20C9D2BF7030319DF2BC21BC62B031022
:10074000BD0DBE0DBF0DC00D3C08BD020318B22B80
:100750000130BE020318B22BBF020318B22BC00235
:10076000031CD52B3B08BE020318BD2B0130BF0272
:100770000318BD2BC002031CD52B3A088038BF02DA
:100780000318C62B0130C002031CD52BFA0A031D27
:10079000D52BF90A031DD52BF80A031DD52BF70A13
:1007A0000319DF2BF80CF90CFA0C3608C1003A08D3
:1007B000C106C11FDD2BF817E32BF813E32BF7015C
:1007C000F801F901FA017A08B3007908B200780853
:1007D000B1007708B0003308EA003208E9003108B8
:1007E000E8003008E700EE01ED012030EC00843035
:1007F000EB002C227A08B3007908B2007808B10027
:100800007708B0003308BC003208BB003108BA00DA
:100810003008B900A1227808A0000030F8008A153D
:100820000A12482880308318F2068316A201A30119
:1008300083126E088316A1007208A10683126D0848
:100840000319142D8316A000F700710803191E2D3B
:10085000A0020319B42C031C6C2C7208A600A61766
:100860007308A5007408A400A3010310A60CA50C2E
:10087000A40CA30CA00B342CA11F412C2214362D48
:100880002210201022167030840083134B2D221268
:10089000A11B542C201C5F2CA60CA50CA40CA30C93
:1008A000F70A0319312D5F2CA61B622C0310A30D30
:1008B000A40DA50DA60DF7030319312D542C2217F5
:1008C000D62C221383126E088316A100A11F6A2C56
:1008D000A6172A2DA6132A2D7108A000F70083124F
:1008E0006D088316A00283126E088316A600A61751
:1008F00083126F088316A5007008A400A3010310DB
:10090000A60CA50CA40CA30CA00B7E2CA11F8B2C59
:10091000A214362DA2102010A21674308400831366
:100920004B2DA212A11B9E2C201CA92CA60CA50CA1
:10093000A40CA30CF70A0319312DA92CA61BAC2C6F
:100940000310A30DA40DA50DA60DF7030319312D5A
:100950009E2CA217D62CA2137208A100A11FB22CA4
:10096000A6172A2DA6132A2D7208A600A61773080B
:10097000A5007408A400A11FC12CA6132215362DB2
:100980002211A30120107030840083134B2DA11B72
:10099000EC2C83126E088316A100201CD62CA60C0A
:1009A000A50CA40CA30CF70A0319312DA31FE72CE7
:1009B000A40A031DE72CA50A031DE72CA60A031DA4
:1009C000E72CA60CA50CA40CF70A0319312D221B49
:1009D000612CA21BAB2C0D2D8030A606A61FF42C7B
:1009E000362D7208A100032D83126E088316A10014
:1009F000A608031D032DA508031D032DA408031D30
:100A0000032DF7012A2DA61B0D2D0310A30DA40DF8
:100A1000A50DA60DF70B032D312DA11F112DA61726
:100A20002A2DA6132A2D83127108F7007208831647
:100A3000A6007308A5007408A4002A2D83126D086F
:100A4000F7006E088316A60083126F088316A500B0
:100A50007008A4002608F8002508F9002408FA0008
:100A6000692DF701F801F901FA01692DA301A40923
:100A7000A509A609A309A30A031D442DA40A031D61
:100A8000442DA50A0319A60A2218402CA2188A2C64
:100A90002219C02CF12C0008A407031C552DA50A0F
:100AA000031D552DA60A0319201484030008A50769
:100AB000031C5D2DA60A0319201484030008801F5F
:100AC000803AA60703182014221A472CA21A912C48
:100AD000C72C83120800B401B501B601B701B801F3
:100AE000B901BA01BB01BC01BD01BE01BF01C0011A
:100AF000C101C201C301C401C501C601C701C801CA
:100B0000C901CA01CB01CC01CD01CE01CF01D00179
:100B1000D101D201D301D401D501D601D701D80129
:100B2000D901DA01DB01DC01DD01DE01DF01E001D9
:100B30000130E100A2018B1BA20A0B138B138B1B4C
:100B40009E2D831606110611831206111430E5003E
:100B50002220831606118312061583160615B02D62
:100B6000B12D000006158312061DBE2D6108E10A95
:100B7000003A0319F02E8316B22D83120130E100E2
:100B80008316061583120619CB2D6108E10A003A77
:100B90000319F02EC02D0130E100831606158312D3
:100BA000061DD82D6108E10A003A0319F02ECD2D5B
:100BB0000130E1008316061583120619E52D610840
:100BC000E10A003A0319F02EDA2DE2016208273C0F
:100BD000031C0D2E3930620784008313013080001E
:100BE000E100831606158312061D002E39306207B8
:100BF000840083130008800A003A0319F02EF12DB7
:100C000083160615831206190B2E6108E10A003AB5
:100C10000319F02E002EE20AE62DE3016308273CBB
:100C2000031C3E2EE4016408073C031C3B2E6408B1
:100C30006307393E84008313000820020318392E0D
:100C4000630CF700F70CF70C1F30F7057708343EFC
:100C5000840083136408073CF8000130F700F808AB
:100C60000319362E0310F70DF80B322E7708000407
:100C70008000E40A132E0830E3070E2EA2080319A1
:100C8000432EC0308B043308FA00320884008313EB
:100C900033188317EC013508EB000F227A08EA00BD
:100CA0007908E9007808E8007708E700CD30EE0021
:100CB000CC30ED004C30EC007B30EB002C227A087D
:100CC000EA007908E9007808E8007708E700EC0115
:100CD0003408EB000F22EC010408EB006C10831BBE
:100CE0006C1483107A08F0007908EF007808EE00A1
:100CF0007708ED006A08F4006908F3006808F2005C
:100D00006708F10012246B08840083136C188317A2
:100D100077088000840A78088000840A79088000B7
:100D2000840A7A0880003108FA00300884008313AE
:100D300031188317EC013708EB000F227A08EA001C
:100D40007908E9007808E8007708E700CD30EE0080
:100D5000CC30ED004C30EC007B30EB002C227A08DC
:100D6000EA007908E9007808E8007708E700EC0174
:100D70003608EB000F22EC010408EB006C10831B1B
:100D80006C1483107A08F0007908EF007808EE0000
:100D90007708ED006A08F4006908F3006808F200BB
:100DA0006708F10012246B08840083136C18831702
:100DB00077088000840A78088000840A7908800017
:100DC000840A7A0880003508340736073707380266
:100DD0000319ED2E3808F800F92E0030F800F92E2E
:100DE00083120313A2080319F72EC0308B04FF30BF
:100DF000F8008A150A1279284F08F8014E020318E4
:100E0000042F4E08F700102FF7010830D000CE0D48
:100E1000F70D4F0877020318F700F80DD00B072FD6
:100E20000800BA01BB01BC01BD01BE01BF01C00188
:100E3000C101C201C301C401C501C601C701C80186
:100E4000C901CA013A304A07840083133908CE0029
:100E50000A30CF00FC267708303E8000CA0A3908E5
:100E6000CE000A30CF00FC267808B900B908031D6F
:100E7000222F0130CB004B084A02031C4A2F4B089B
:100E80004A023A3E840083130008CC00CD00A22120
:100E9000CB0A3B2F0800B501B6010130B700B801FD
:100EA000340838020318802F3708B9000A30BA0016
:100EB000F701F801390803103A18F707F70CF80C96
:100EC000BA18F707F70CF80C3A19F707F70CF80CF3
:100ED000BA19F707F70CF80C3A1AF707F70CF80CE1
:100EE000BA1AF707F70CF80C3A1BF707F70CF80CCF
:100EF000BA1BF707F70CF80C7808B700B80A502FA0
:100F00003308BC003208BB003108BA003008B90011
:100F1000A1227808B500EC013508EB000F228314FC
:100F20003308F0003208EF003108EE003008ED0021
:100F30007A08F4007908F3007808F2007708F100E5
:100F400012247A08BC007908BB007808BA00770838
:100F5000B900EC013708EB000F223C08EA003B081F
:100F6000E9003A08E8003908E7007A08EE00790855
:100F7000ED007808EC007708EB002C227A08BC0022
:100F80007908BB007808BA007708B900A122780870
:100F9000B6003508B90011272E30CD00A221360841
:060FA000B9001127080052
:1010000003081F3983002730A3000830A400A8017B
:10101000A701A601A501AC01AB01AA01A901AD017F
:10102000AF01AE0183161F149F141F159F110730C7
:101030009C00831323308312A000A101A20104307D
:10104000B000FA30E5008A1122208A15B00B212861
:101050002730B0008A1158298A158A1151218A1522
:101060000330B000B1018A1195218A150C300317A5
:101070008D0000308F008A110313B9218A150330C7
:10108000B0000130B1008A1195218A158A11C02A59
:101090008A15F808031956280F3003178D00003001
:1010A0008F008A110313B9218A15552812300317AE
:1010B0008D0000308F008A110313B9218A15043086
:1010C000B000FA30E5008A1122208A15B00B6128A1
:1010D0000830B000FA30E5008A1122208A15B00BE2
:1010E0006A28B1012530B000B3012930B2008A115D
:1010F0006B2D8A157808AD00AD08031991288A1167
:1011000051218A15B001B1018A1195218A15143037
:1011100003178D0000308F008A110313B9218A153F
:1011200068288A1151218A15B001B1018A119521CF
:101130008A151A3003178D0000308F008A110313AF
:10114000B9218A152808B3002708B2002608B10083
:101150002508B0000230B4008A114B278A151C30D4
:1011600003178D0000308F008A110313B9218A15EF
:10117000B0010130B1008A1195218A151E30031784
:101180008D0000308F008A110313B9218A152C08B5
:10119000B3002B08B2002A08B1002908B0000230C1
:1011A000B4008A114B278A15203003178D000030B8
:0E11B0008F008A110313B9218A156828630085
:02400E00723FFF
:00000001FF
;PIC16F877A
;CRC=DB0D  CREATED="01-sep.-24 15:41"
